:020000040800F2
:1000000000A00020013200085132000851320008DF
:10001000513200085132000851320008000000003F
:100020000000000000000000000000005132000845
:10003000513200080000000051320008F131000880
:100040005132000851320008513200085132000884
:100050005132000851320008513200085132000874
:100060005132000851320008513200085132000864
:100070005132000851320008513200085132000854
:100080005132000851320008513200085132000844
:100090005132000851320008513200085132000834
:1000A0005132000851320008513200085132000824
:1000B0005132000851320008513200085132000814
:1000C0005132000851320008513200085132000804
:1000D00051320008513200085132000851320008F4
:1000E00051320008513200085132000851320008E4
:1000F00051320008513200085132000851320008D4
:100100000000000000000000000000005132000864
:1001100051320008513200085132000851320008B3
:1001200051320008513200085132000851320008A3
:1001300051320008513200080000000000000000A9
:10014000513200085132000851320008000000000E
:10015000000000000000000000000000000000009F
:100160000000000000000000513200085132000879
:1001700051320008000000000000000000000000F4
:080180000000000051320008EC
:1001880008B50548054B1B1A062B00D808BD044BBB
:10019800002BFBD09847F9E7A0000020A30000201F
:1001A8000000000008B50748074B1B1A9B1003EB1B
:1001B800D373591000D108BD044A002AFBD09047D8
:1001C800F9E700BFA0000020A00000200000000008
:1001D80010B5064C237843B9FFF7D2FF044B13B18F
:1001E8000448AFF300800123237010BDA000002055
:1001F80000000000CC5B000808B5074B1BB107489E
:100208000749AFF300800748036813B1064B03B1F1
:100218009847BDE80840C5E700000000CC5B00082F
:10022800A4000020A00000200000000081F0004190
:1002380002E000BF83F0004330B54FEA41044FEAC3
:10024800430594EA050F08BF90EA020F1FBF54EA5E
:10025800000C55EA020C7FEA645C7FEA655C00F0FA
:10026800E2804FEA5454D4EB5555B8BF6D420CDDCB
:100278002C4480EA020281EA030382EA000083EA4E
:10028800010180EA020281EA0303362D88BF30BDEE
:1002980011F0004F4FEA01314FF4801C4CEA113144
:1002A80002D0404261EB410113F0004F4FEA0333A3
:1002B8004CEA133302D0524263EB430394EA050F2E
:1002C80000F0A780A4F10104D5F1200E0DDB02FA9D
:1002D8000EFC22FA05F2801841F1000103FA0EF231
:1002E800801843FA05F359410EE0A5F120050EF1F7
:1002F800200E012A03FA0EFC28BF4CF0020C43FA28
:1003080005F3C01851EBE37101F0004507D54FF034
:10031800000EDCF1000C7EEB00006EEB0101B1F584
:10032800801F1BD3B1F5001F0CD349085FEA3000CA
:100338004FEA3C0C04F101044FEA445212F5800FD5
:1003480080F09A80BCF1004F08BF5FEA500C50F172
:10035800000041EB045141EA050130BD5FEA4C0C55
:10036800404141EB010111F4801FA4F10104E9D1DE
:1003780091F0000F04BF01460020B1FA81F308BFD5
:100388002033A3F10B03B3F120020CDA0C3208DDA1
:1003980002F1140CC2F10C0201FA0CF021FA02F17C
:1003A8000CE002F11402D8BFC2F1200C01FA02F1EC
:1003B80020FA0CFCDCBF41EA0C019040E41AA2BF11
:1003C80001EB0451294330BD6FEA04041F3C1CDAD9
:1003D8000C340EDC04F11404C4F1200220FA04F0F9
:1003E80001FA02F340EA030021FA04F345EA0301A3
:1003F80030BDC4F10C04C4F1200220FA02F001FA65
:1004080004F340EA0300294630BD21FA04F02946E6
:1004180030BD94F0000F83F4801306BF81F480117F
:100428000134013D4EE77FEA645C18BF7FEA655CF2
:1004380029D094EA050F08BF90EA020F05D054EAC4
:10044800000C04BF1946104630BD91EA030F1EBFC9
:100458000021002030BD5FEA545C05D140004941CD
:1004680028BF41F0004130BD14F580043CBF01F5C0
:10047800801130BD01F0004545F0FE4141F47001A6
:100488004FF0000030BD7FEA645C1ABF1946104681
:100498007FEA655C1CBF0B46024650EA013406BF82
:1004A80052EA033591EA030F41F4002130BD00BF41
:1004B80090F0000F04BF0021704730B54FF48064FE
:1004C80004F132044FF000054FF0000150E700BF7F
:1004D80090F0000F04BF0021704730B54FF48064DE
:1004E80004F1320410F0004548BF40424FF00001CB
:1004F8003EE700BF42004FEAE2014FEA31014FEA0E
:1005080002701FBF12F07F4393F07F4F81F060515C
:10051800704792F0000F14BF93F07F4F704730B5CB
:100528004FF4607401F0004521F0004120E700BF5E
:1005380050EA010208BF704730B54FF000050AE0E5
:1005480050EA010208BF704730B511F0004502D5E6
:10055800404261EB41014FF4806404F132045FEAE8
:10056800915C3FF4DCAE4FF003025FEADC0C18BF8D
:1005780003325FEADC0C18BF033202EBDC02C2F183
:10058800200300FA03FC20FA02F001FA03FE40EA15
:100598000E0021FA02F11444C1E600BF70B54FF015
:1005A800FF0C4CF4E06C1CEA11541DBF1CEA1355F7
:1005B80094EA0C0F95EA0C0F00F0DEF82C4481EA5F
:1005C800030621EA4C5123EA4C5350EA013518BF7F
:1005D80052EA033541F4801143F4801338D0A0FB6C
:1005E80002CE4FF00005E1FB02E506F00042E0FB19
:1005F80003E54FF00006E1FB03569CF0000F18BF1F
:100608004EF0010EA4F1FF04B6F5007F64F54074C6
:1006180004D25FEA4E0E6D4146EB060642EAC62159
:1006280041EA55514FEAC52040EA5E504FEACE2EC6
:10063800B4F1FD0C88BFBCF5E06F1ED8BEF1004FC9
:1006480008BF5FEA500E50F1000041EB045170BD45
:1006580006F0004646EA010140EA020081EA030189
:10066800B4EB5C04C2BFD4EB0C0541EA045170BD85
:1006780041F480114FF0000E013C00F3AB8014F1FF
:10068800360FDEBF002001F0004170BDC4F1000448
:10069800203C35DA0C341BDC04F11404C4F12005C9
:1006A80000FA05F320FA04F001FA05F240EA020024
:1006B80001F0004221F0004110EBD37021FA04F65A
:1006C80042EB06015EEA430E08BF20EAD37070BD14
:1006D800C4F10C04C4F1200500FA04F320FA05F073
:1006E80001FA04F240EA020001F0004110EBD37075
:1006F80041F100015EEA430E08BF20EAD37070BDE5
:10070800C4F1200500FA05F24EEA020E20FA04F3BD
:1007180001FA05F243EA020321FA04F001F000416C
:1007280021FA04F220EA020000EBD3705EEA430EDD
:1007380008BF20EAD37070BD94F0000F0FD101F00C
:100748000046400041EB010111F4801F08BF013C45
:10075800F7D041EA060195F0000F18BF704703F083
:100768000046520043EB030313F4801F08BF013D0A
:10077800F7D043EA0603704794EA0C0F0CEA1355C6
:1007880018BF95EA0C0F0CD050EA410618BF52EA80
:100798004306D1D181EA030101F000414FF0000086
:1007A80070BD50EA410606BF1046194652EA430694
:1007B80019D094EA0C0F02D150EA013613D195EA08
:1007C8000C0F05D152EA03361CBF104619460AD150
:1007D80081EA030101F0004141F0FE4141F470015A
:1007E8004FF0000070BD41F0FE4141F4780170BD4A
:1007F80070B54FF0FF0C4CF4E06C1CEA11541DBFAF
:100808001CEA135594EA0C0F95EA0C0F00F0A7F8B0
:10081800A4EB050481EA030E52EA03354FEA0131DD
:1008280000F088804FEA03334FF0805545EA1313F0
:1008380043EA12634FEA022245EA111545EA1065B8
:100848004FEA00260EF000419D4208BF964244F14F
:10085800FD0404F5407402D25B084FEA3202B61A6E
:1008680065EB03055B084FEA32024FF480104FF442
:10087800002CB6EB020E75EB030E22BFB61A7546B6
:1008880040EA0C005B084FEA3202B6EB020E75EB49
:10089800030E22BFB61A754640EA5C005B084FEAB1
:1008A8003202B6EB020E75EB030E22BFB61A75467E
:1008B80040EA9C005B084FEA3202B6EB020E75EB89
:1008C800030E22BFB61A754640EADC0055EA060E4A
:1008D80018D04FEA051545EA16754FEA06164FEA8D
:1008E800C30343EA52734FEAC2025FEA1C1CC0D139
:1008F80011F4801F0BD141EA00014FF000004FF0C6
:10090800004CB6E711F4801F04BF01430020B4F186
:10091800FD0C88BFBCF5E06F3FF6AFAEB5EB030C3E
:1009280004BFB6EB020C5FEA500C50F1000041EB3B
:10093800045170BD0EF0004E4EEA113114EB5C0408
:10094800C2BFD4EB0C0541EA045170BD41F48011DB
:100958004FF0000E013C90E645EA060E8DE60CEAE3
:10096800135594EA0C0F08BF95EA0C0F3FF43BAF00
:1009780094EA0C0F0AD150EA01347FF434AF95EAB7
:100988000C0F7FF425AF104619462CE795EA0C0F9B
:1009980006D152EA03353FF4FDAE1046194622E768
:1009A80050EA410618BF52EA43067FF4C5AE50EA42
:1009B80041047FF40DAF52EA43057FF4EBAE12E732
:1009C8004FF0FF3C06E000BF4FF0010C02E000BF13
:1009D8004FF0010C4DF804CD4FEA410C7FEA6C5CF6
:1009E8004FEA430C18BF7FEA6C5C1BD001B050EA99
:1009F800410C0CBF52EA430C91EA030F02BF90EA84
:100A0800020F0020704710F1000F91EA030F58BF42
:100A1800994208BF90422CBFD8176FEAE37040F0A4
:100A2800010070474FEA410C7FEA6C5C02D150EA42
:100A3800013C07D14FEA430C7FEA6C5CD6D152EAFD
:100A4800033CD3D05DF8040B704700BF84461046C2
:100A580062468C461946634600E000BF01B5FFF7C1
:100A6800B7FF002848BF10F1000F01BD4DF808ED91
:100A7800FFF7F4FF0CBF012000205DF808FB00BF62
:100A88004DF808EDFFF7EAFF34BF012000205DF8BC
:100A980008FB00BF4DF808EDFFF7E0FF94BF012009
:100AA80000205DF808FB00BF4DF808EDFFF7CEFF0A
:100AB80094BF012000205DF808FB00BF4DF808ED49
:100AC800FFF7C4FF34BF012000205DF808FB00BF1A
:100AD8004FEA410212F5001215D211D56FF478735E
:100AE800B3EB625212D94FEAC12343F0004343EA01
:100AF800505311F0004F23FA02F018BF40427047DC
:100B08004FF00000704750EA013005D111F0004065
:100B180008BF6FF0004070474FF00000704700BFFB
:100B280080B400AF1F4B1F4AD2F8882042F47002ED
:100B3800C3F888201C4B1C4A126842F001021A6054
:100B4800194A194B5968194B0B405360164A164BF2
:100B58001B6823F0847323F480331360124B124A0A
:100B6800126822F480221A600F4B0F4A526822F44E
:100B7800FE025A600C4B0C4AD26A22F00F02DA626B
:100B8800094A094B196B0A4B0B401363064B0022A9
:100B98009A60044B4FF000629A60BD465DF8047B92
:100BA800704700BF00ED00E0001002400CC07FF865
:100BB800CCFC00FF80B500AF084B084A126842F031
:100BC80010021A60032000F005F9002000F008F870
:100BD80002F09AFA0023184680BD00BF00200240A8
:100BE80080B582B000AF7860094B1A68094BA3FB47
:100BF80002139B09184600F013F94FF0FF3079688B
:100C0800002200F0F1F8002318460837BD4680BDE1
:100C180000000020D34D621080B400AF044B1B6865
:100C28005A1C034B1A60BD465DF8047B704700BF31
:100C38006C01002080B400AF034B1B681846BD460A
:100C48005DF8047B704700BF6C01002080B584B05C
:100C580000AF7860FFF7EEFFF86000BFFFF7EAFF2C
:100C68000246FB68D21A7B689A42F7D31037BD4612
:100C780080BD00BF80B485B000AF78607B6803F0AA
:100C88000703FB600C4BDB68BB60BA684FF6FF03D9
:100C98001340BB60FB681A02BB68134343F0BF6391
:100CA80043F40033BB60044BBA68DA601437BD46BE
:100CB8005DF8047B704700BF00ED00E080B400AF32
:100CC800044BDB6803F4E0631B0A1846BD465DF875
:100CD800047B704700ED00E080B483B000AF0346AA
:100CE8003960FB7197F90730002B0BDA0D49FB7956
:100CF80003F00F03043B3A68D2B21201D2B20B449C
:100D08001A7609E0084997F907303A68D2B2120111
:100D1800D2B20B4483F800230C37BD465DF8047B40
:100D2800704700BF00ED00E000E100E080B489B04A
:100D380000AFF860B9607A60FB6803F00703FB61F5
:100D4800FB69C3F10703042B28BF0423BB61FB69BC
:100D58000433062B02D9FB69033B00E000237B61C7
:100D6800BB69012202FA03F35A1EBB681A407B6969
:100D78009A407B69012101FA03F3591E7B680B40F5
:100D8800134318462437BD465DF8047B704700BFFF
:100D980080B582B000AF78607B68013BB3F1807F9B
:100DA80001D301230FE00A4B7A68013A5A604FF0E9
:100DB800FF300F21FFF790FF054B00229A60044B8C
:100DC80007221A60002318460837BD4680BD00BFB9
:100DD80010E000E080B582B000AF78607868FFF777
:100DE80049FF0837BD4680BD80B586B000AF0346D1
:100DF800B9607A60FB7300237B61FFF75FFF78615E
:100E08007869B9687A68FFF791FF034697F90F2068
:100E180010461946FFF760FF1837BD4680BD00BF72
:100E280080B582B000AF78607868FFF7B1FF0346FD
:100E380018460837BD4680BD80B483B000AF7860DF
:100E48007B68042B06D1094B084A126842F0040259
:100E58001A6005E0054B054A126822F004021A6080
:100E68000C37BD465DF8047B704700BF10E000E01A
:100E780080B500AF00F002F880BD00BF80B400AFBD
:100E8800BD465DF8047B704780B487B000AF7860DA
:100E9800396000237B610023FB6000233B6154E140
:100EA8003B681A687B69012101FA03F31340FB6070
:100EB800FB68002B00F046813B685B68022B03D07F
:100EC8003B685B68122B23D17B69DA087B680832A0
:100ED80053F822303B617B6903F007039B000F2224
:100EE80002FA03F3DB433A6913403B613B681A6932
:100EF8007B6903F007039B0002FA03F33A69134383
:100F08003B617B69DA087B680832396943F822104B
:100F18007B681B683B617B695B00032202FA03F371
:100F2800DB433A6913403B613B685B6803F00302AB
:100F38007B695B0002FA03F33A6913433B617B6800
:100F48003A691A603B685B68012B0BD03B685B68A9
:100F5800022B07D03B685B68112B03D03B685B68AA
:100F6800122B30D17B689B683B617B695B00032255
:100F780002FA03F3DB433A6913403B613B68DA68E2
:100F88007B695B0002FA03F33A6913433B617B68B0
:100F98003A699A607B685B683B617B69012202FA67
:100FA80003F3DB433A6913403B613B685B6803F03A
:100FB80010031A097B6902FA03F33A6913433B6188
:100FC8007B683A695A607B68DB683B617B695B00D8
:100FD800032202FA03F3DB433A6913403B613B689F
:100FE8009A687B695B0002FA03F33A6913433B6131
:100FF8007B683A69DA603B685B6803F08053002BD2
:1010080000F0A080574B574A926942F001029A615A
:10101800544B9B6903F00103BB60BB68524B7A6970
:101028009208023253F822303B617B6903F00303D4
:101038009B000F2202FA03F3DB433A6913403B613A
:101048007B68B3F1904F19D07A68484B9A4213D015
:101058007A68474B9A420DD07A68464B9A4207D035
:101068007A68454B9A4201D1042308E0052306E03B
:10107800032304E0022302E0012300E000237A694D
:1010880002F00302920093403A6913433B61364BE6
:101098007A6992080232396943F82210374B1B6883
:1010A8003B61FB68DB433A6913403B613B685B6823
:1010B80003F48033002B03D03A69FB6813433B6188
:1010C8002E4B3A691A602D4B5B683B61FB68DB432A
:1010D8003A6913403B613B685B6803F40033002BBB
:1010E80003D03A69FB6813433B61244B3A695A6061
:1010F800224B9B683B61FB68DB433A6913403B61C9
:101108003B685B6803F48013002B03D03A69FB68E3
:1011180013433B61194B3A699A60184BDB683B6192
:10112800FB68DB433A6913403B613B685B6803F447
:101138000013002B03D03A69FB6813433B610F4B44
:101148003A69DA607B6901337B613B681A687B69BD
:1011580022FA03F3002B7FF4A3AE1C37BD465DF8DB
:10116800047B704700100240000001400004004862
:1011780000080048000C0048001000480004014026
:1011880080B483B000AF786013460A467A807B70DB
:101198007B78002B03D07A887B689A6102E07A8892
:1011A8007B689A620C37BD465DF8047B704700BFC8
:1011B80080B5ADF5007D00AF3B1D18600023C7F872
:1011C800F8313B1D1B681B6803F00103002B00F07E
:1011D800C981AE4B5B6803F00C03042B0BD0AB4BFF
:1011E8005B6803F00C03082B78D1A84B5B6803F409
:1011F8008033002B72D04FF40033C7F8F431D7F89E
:10120800F43193FAA3F3C7F8F031D7F8F031B3FA11
:1012180083F3DBB243F02003DBB2DBB25B09DBB262
:10122800012B02D1994B1B6835E04FF40033C7F806
:10123800EC31D7F8EC3193FAA3F3C7F8E831D7F8D3
:10124800E831B3FA83F3DBB243F02003DBB2DBB25D
:101258005B09DBB2022B02D18C4B1B6A1BE04FF4FB
:101268000033C7F8E431D7F8E43193FAA3F3C7F8A9
:10127800E031D7F8E031B3FA83F3DBB243F020036F
:10128800DBB2DBB25B09DBB2042B02D17F4B5B68BC
:1012980001E07E4B5B6A4FF40032C7F8DC21D7F8D7
:1012A800DC2192FAA2F2C7F8D821D7F8D821B2FAED
:1012B80082F2D2B242F02002D2B2D2B202F01F02BF
:1012C800D34003F00103002B07D03B1D1B685B686C
:1012D800002B02D1012301F01EB843E13B1D1B681E
:1012E8005B68B3F5803F06D1684B684A126842F4E0
:1012F80080321A6030E03B1D1B685B68002B0CD104
:10130800624B624A126822F480321A605F4B5F4A6D
:10131800126822F480221A601EE03B1D1B685B687D
:10132800B3F5A02F0CD1594B584A126842F48022C9
:101338001A60564B554A126842F480321A600BE024
:10134800524B524A126822F480321A604F4B4F4A6D
:10135800126822F480221A604C4B4C4AD26A22F05E
:101368000F013A1D126892680A43DA623B1D1B6836
:101378005B68002B7AD0FFF75DFCC7F8F8010AE03C
:10138800FFF758FC0246D7F8F831D31A642B02D974
:10139800032300F0C0BF4FF40033C7F8D431D7F8A7
:1013A800D43193FAA3F3C7F8D031D7F8D031B3FAD0
:1013B80083F3DBB243F02003DBB2DBB25B09DBB2C1
:1013C800012B02D1314B1B6835E04FF40033C7F8CD
:1013D800CC31D7F8CC3193FAA3F3C7F8C831D7F892
:1013E800C831B3FA83F3DBB243F02003DBB2DBB2DC
:1013F8005B09DBB2022B02D1244B1B6A1BE04FF4C2
:101408000033C7F8C431D7F8C43193FAA3F3C7F847
:10141800C031D7F8C031B3FA83F3DBB243F020030D
:10142800DBB2DBB25B09DBB2042B02D1174B5B6882
:1014380001E0164B5B6A4FF40032C7F8BC21D7F8BD
:10144800BC2192FAA2F2C7F8B821D7F8B821B2FAAB
:1014580082F2D2B242F02002D2B2D2B202F01F021D
:10146800D34003F00103002B8AD07BE0FFF7E2FBB7
:10147800C7F8F8010CE0FFF7DDFB0246D7F8F831B2
:10148800D31A642B04D9032300F045BF001002408F
:101498004FF40033C7F8B431D7F8B43193FAA3F353
:1014A800C7F8B031D7F8B031B3FA83F3DBB243F001
:1014B8002003DBB2DBB25B09DBB2012B02D1B64BF6
:1014C8001B6835E04FF40033C7F8AC31D7F8AC31BE
:1014D80093FAA3F3C7F8A831D7F8A831B3FA83F37E
:1014E800DBB243F02003DBB2DBB25B09DBB2022BD9
:1014F80002D1A94B1B6A1BE04FF40033C7F8A43193
:10150800D7F8A43193FAA3F3C7F8A031D7F8A031DC
:10151800B3FA83F3DBB243F02003DBB2DBB25B093F
:10152800DBB2042B02D19C4B5B6801E09A4B5B6AEF
:101538004FF40032C7F89C21D7F89C2192FAA2F206
:10154800C7F89821D7F89821B2FA82F2D2B242F0BD
:101558002002D2B2D2B202F01F02D34003F001033C
:10156800002B88D13B1D1B681B6803F00203002B6E
:1015780000F0D381884B5B6803F00C03002B0DD07F
:10158800854B5B6803F00C03082B40F08F80824B7F
:101598005B6803F48033002B40F088800223C7F88F
:1015A8009431D7F8943193FAA3F3C7F89031D7F868
:1015B8009031B3FA83F3DBB243F02003DBB2DBB242
:1015C8005B09DBB2012B02D1734B1B6833E00223AA
:1015D800C7F88C31D7F88C3193FAA3F3C7F8883160
:1015E800D7F88831B3FA83F3DBB243F02003DBB2D8
:1015F800DBB25B09DBB2022B02D1674B1B6A1AE034
:101608000223C7F88431D7F8843193FAA3F3C7F8D3
:101618008031D7F88031B3FA83F3DBB243F020038B
:10162800DBB2DBB25B09DBB2042B02D15A4B5B683D
:1016380001E0594B5B6A0222C7F87C21D7F87C216C
:1016480092FAA2F2C7F87821D7F87821B2FA82F292
:10165800D2B242F02002D2B2D2B202F01F02D3407C
:1016680003F00103002B07D03B1D1B681B69012BEE
:1016780002D0012300F04FBE474B474A126822F0C0
:10168800F8013A1D12685069F822C7F87421D7F892
:10169800742192FAA2F2C7F87021D7F87021B2FA31
:1016A80082F200FA02F20A431A6036E13B1D1B6817
:1016B8001B69002B00F0A7800123C7F86C31D7F80D
:1016C8006C3193FAA3F3C7F86831D7F86831B3FAE5
:1016D80083F39B0003F1844303F5840301221A601A
:1016E800FFF7A8FAC7F8F8010AE0FFF7A3FA0246DD
:1016F800D7F8F831D31A022B02D9032300F00BBE16
:101708000223C7F86431D7F8643193FAA3F3C7F812
:101718006031D7F86031B3FA83F3DBB243F02003CA
:10172800DBB2DBB25B09DBB2012B02D11A4B1B68BF
:1017380036E00223C7F85C31D7F85C3193FAA3F39B
:10174800C7F85831D7F85831B3FA83F3DBB243F00E
:101758002003DBB2DBB25B09DBB2022B02D10E4BFA
:101768001B6A1DE00223C7F85431D7F8543193FAA5
:10177800A3F3C7F85031D7F85031B3FA83F3DBB28B
:1017880043F02003DBB2DBB25B09DBB2042B05D1EB
:10179800014B5B6804E000BF00100240C34B5B6A6A
:1017A8000222C7F84C21D7F84C2192FAA2F2C7F8C6
:1017B8004821D7F84821B2FA82F2D2B242F0200288
:1017C800D2B2D2B202F01F02D34003F00103002BC1
:1017D8008BD0B64BB54A126822F0F8013A1D126850
:1017E8005069F822C7F84421D7F8442192FAA2F2A6
:1017F800C7F84021D7F84021B2FA82F200FA02F283
:101808000A431A6089E00123C7F83C31D7F83C3114
:1018180093FAA3F3C7F83831D7F83831B3FA83F31A
:101828009B0003F1844303F5840300221A60FFF749
:1018380001FAC7F8F8010AE0FFF7FCF90246D7F801
:10184800F831D31A022B02D9032300F064BD022316
:10185800C7F83431D7F8343193FAA3F3C7F83031E5
:10186800D7F83031B3FA83F3DBB243F02003DBB2AD
:10187800DBB25B09DBB2012B02D18C4B1B6833E076
:101888000223C7F82C31D7F82C3193FAA3F3C7F801
:101898002831D7F82831B3FA83F3DBB243F02003B9
:1018A800DBB2DBB25B09DBB2022B02D17F4B1B6AD6
:1018B8001AE00223C7F82431D7F8243193FAA3F3A6
:1018C800C7F82031D7F82031B3FA83F3DBB243F0FD
:1018D8002003DBB2DBB25B09DBB2042B02D1734B12
:1018E8005B6801E0714B5B6A0222C7F81C21D7F8DC
:1018F8001C2192FAA2F2C7F81821D7F81821B2FAD7
:1019080082F2D2B242F02002D2B2D2B202F01F0268
:10191800D34003F00103002B8ED13B1D1B681B68CD
:1019280003F00803002B00F03C813B1D1B689B69FA
:10193800002B00F094800123C7F81431D7F8143134
:1019480093FAA3F3C7F81031D7F81031B3FA83F339
:101958009B001A46564B134401221A60FFF76AF996
:10196800C7F8F8010AE0FFF765F90246D7F8F83139
:10197800D31A022B02D9032300F0CDBC0223C7F8E7
:101988000C31D7F80C3193FAA3F3C7F80831D7F81C
:101998000831B3FA83F3DBB243F06003DBB2DBB2A6
:1019A8005B09DBB2012B02D1404B1B6839E00223F3
:1019B800C7F80431D7F8043193FAA3F207F5807316
:1019C8001A6007F580731B68B3FA83F3DBB243F040
:1019D8006003DBB2DBB25B09DBB2022B02D1334B13
:1019E8001B6A1EE007F1FC0302221A6007F1FC03E0
:1019F8001B6893FAA3F207F1F8031A6007F1F803DA
:101A08001B68B3FA83F3DBB243F06003DBB2DBB2EB
:101A18005B09DBB2042B02D1244B5B6801E0234B4A
:101A28005B6A07F1F4020221116007F1F4021268FF
:101A380092FAA2F107F1F002116007F1F0021268C0
:101A4800B2FA82F2D2B242F06002D2B2D2B202F05C
:101A58001F02D34003F00103002B84D0A1E007F15B
:101A6800EC0301221A6007F1EC031B6893FAA3F256
:101A780007F1E8031A6007F1E8031B68B3FA83F378
:101A88009B001A460A4B134400221A60FFF7D2F84B
:101A9800C7F8F8010EE0FFF7CDF80246D7F8F8319D
:101AA800D31A022B06D9032300F035BC00100240DC
:101AB8008004424207F1E40302221A6007F1E403BA
:101AC8001B6893FAA3F207F1E0031A6007F1E00339
:101AD8001B68B3FA83F3DBB243F06003DBB2DBB21B
:101AE8005B09DBB2012B02D1A54B1B683BE007F178
:101AF800DC0302221A6007F1DC031B6893FAA3F2E5
:101B080007F1D8031A6007F1D8031B68B3FA83F307
:101B1800DBB243F06003DBB2DBB25B09DBB2022B62
:101B280002D1974B1B6A1EE007F1D40302221A6008
:101B380007F1D4031B6893FAA3F207F1D0031A60E4
:101B480007F1D0031B68B3FA83F3DBB243F06003F9
:101B5800DBB2DBB25B09DBB2042B02D1884B5B68DA
:101B680001E0874B5B6A07F1CC020221116007F1A3
:101B7800CC02126892FAA2F107F1C802116007F1CB
:101B8800C8021268B2FA82F2D2B242F06002D2B24D
:101B9800D2B202F01F02D34003F00103002B7FF4FE
:101BA8007AAF3B1D1B681B6803F00403002B00F091
:101BB8009E81002387F8FF31714BDB6903F0805366
:101BC800002B12D16E4B6E4AD26942F08052DA6114
:101BD8006B4BDB6903F0805207F10C031A6007F1C5
:101BE8000C031B68012387F8FF31664B1B6803F45D
:101BF8008073002B1AD1634B624A126842F48072D8
:101C08001A60FFF717F8C7F8F80109E0FFF712F8AC
:101C18000246D7F8F831D31A642B01D903237AE3A3
:101C2800584B1B6803F48073002BEFD03B1D1B68D7
:101C3800DB68012B06D1524B514A126A42F001026D
:101C48001A622FE03B1D1B68DB68002B0CD14C4B44
:101C58004B4A126A22F001021A62494B484A126A38
:101C680022F004021A621DE03B1D1B68DB68052B8D
:101C78000CD1434B424A126A42F004021A62404BAA
:101C88003F4A126A42F001021A620BE03C4B3C4A9E
:101C9800126A22F001021A62394B394A126A22F09A
:101CA80004021A623B1D1B68DB68002B00F08D8064
:101CB800FEF7C0FFC7F8F8010BE0FEF7BBFF0246CE
:101CC800D7F8F831D21A41F288339A4201D903235E
:101CD80021E307F1C40302221A6007F1C4031B6859
:101CE80093FAA3F207F1C0031A6007F1C0031B6857
:101CF800B3FA83F3DBB243F04003DBB2DBB25B0938
:101D0800DBB2012B02D11E4B1B683FE007F1BC037D
:101D180002221A6007F1BC031B6893FAA3F207F1C9
:101D2800B8031A6007F1B8031B68B3FA83F3DBB290
:101D380043F04003DBB2DBB25B09DBB2022B02D11A
:101D48000F4B1B6A22E007F1B40302221A6007F165
:101D5800B4031B6893FAA3F207F1B0031A6007F102
:101D6800B0031B68B3FA83F3DBB243F04003DBB282
:101D7800DBB25B09DBB2042B06D1014B5B6805E0E3
:101D88000010024000700040A34B5B6A07F1AC02F0
:101D98000221116007F1AC02126892FAA2F107F170
:101DA800A802116007F1A8021268B2FA82F2D2B250
:101DB80042F04002D2B2D2B202F01F02D34003F086
:101DC8000103002B3FF479AF87E0FEF733FFC7F834
:101DD800F8010BE0FEF72EFF0246D7F8F831D21AC9
:101DE80041F288339A4201D9032394E207F1A4030C
:101DF80002221A6007F1A4031B6893FAA3F207F101
:101E0800A0031A6007F1A0031B68B3FA83F3DBB2DF
:101E180043F04003DBB2DBB25B09DBB2012B02D13A
:101E28007D4B1B683BE007F19C0302221A6007F117
:101E38009C031B6893FAA3F207F198031A6007F151
:101E480098031B68B3FA83F3DBB243F04003DBB2B9
:101E5800DBB25B09DBB2022B02D16F4B1B6A1EE0BF
:101E680007F1940302221A6007F194031B6893FA9E
:101E7800A3F207F190031A6007F190031B68B3FA05
:101E880083F3DBB243F04003DBB2DBB25B09DBB2C6
:101E9800042B02D1604B5B6801E05F4B5B6A07F182
:101EA8008C020221116007F18C02126892FAA2F1E9
:101EB80007F18802116007F188021268B2FA82F20B
:101EC800D2B242F04002D2B2D2B202F01F02D340E4
:101ED80003F00103002B7FF47DAF97F8FF31012B4E
:101EE80005D14D4B4C4AD26922F08052DA613B1D34
:101EF8001B68DB69002B00F00D82474B5B6803F021
:101F08000C03082B00F001823B1D1B68DB69022BC8
:101F180040F0578107F184034FF080721A6007F18F
:101F280084031B6893FAA3F207F180031A6007F190
:101F380080031B68B3FA83F39B0003F1844303F522
:101F4800840300221A60FEF775FEC7F8F80109E05D
:101F5800FEF770FE0246D7F8F831D31A022B01D9E2
:101F68000323D8E107F17C034FF000721A6007F1F0
:101F78007C031B6893FAA3F207F178031A6007F150
:101F880078031B68B3FA83F3DBB243F02003DBB2B8
:101F9800DBB25B09DBB2012B02D11F4B1B683FE0B0
:101FA80007F174034FF000721A6007F174031B689D
:101FB80093FAA3F207F170031A6007F170031B6824
:101FC800B3FA83F3DBB243F02003DBB2DBB25B0985
:101FD800DBB2022B02D1104B1B6A21E007F16C0324
:101FE8004FF000721A6007F16C031B6893FAA3F2B2
:101FF80007F168031A6007F168031B68B3FA83F3F3
:10200800DBB243F02003DBB2DBB25B09DBB2042BAB
:1020180004D1014B5B6803E000100240BC4B5B6AD3
:1020280007F164024FF00071116007F16402126851
:1020380092FAA2F107F16002116007F160021268DA
:10204800B2FA82F2D2B242F02002D2B2D2B202F096
:102058001F02D34003F00103002B7FF479AFAC4B90
:10206800AB4A526822F474113A1D1268506A3A1D3C
:102078001268126A02430A435A6007F15C034FF080
:1020880080721A6007F15C031B6893FAA3F207F1E8
:1020980058031A6007F158031B68B3FA83F39B00CF
:1020A80003F1844303F5840301221A60FEF7C2FD9D
:1020B800C7F8F80109E0FEF7BDFD0246D7F8F83188
:1020C800D31A022B01D9032325E107F154034FF05A
:1020D80000721A6007F154031B6893FAA3F207F120
:1020E80050031A6007F150031B68B3FA83F3DBB29D
:1020F80043F02003DBB2DBB25B09DBB2012B02D178
:10210800834B1B683DE007F14C034FF000721A60E7
:1021180007F14C031B6893FAA3F207F148031A600E
:1021280007F148031B68B3FA83F3DBB243F02003DB
:10213800DBB2DBB25B09DBB2022B02D1744B1B6A48
:102148001FE007F144034FF000721A6007F14403DF
:102158001B6893FAA3F207F140031A6007F14003E2
:102168001B68B3FA83F3DBB243F02003DBB2DBB2C4
:102178005B09DBB2042B02D1654B5B6801E0644B61
:102188005B6A07F13C024FF00071116007F13C02F5
:10219800126892FAA2F107F13802116007F13802C9
:1021A8001268B2FA82F2D2B242F02002D2B2D2B2AD
:1021B80002F01F02D34003F00103002B3FF47BAF72
:1021C800A8E007F134034FF080721A6007F1340376
:1021D8001B6893FAA3F207F130031A6007F1300382
:1021E8001B68B3FA83F39B0003F1844303F584036C
:1021F80000221A60FEF71EFDC7F8F80109E0FEF795
:1022080019FD0246D7F8F831D31A022B01D9032356
:1022180081E007F12C034FF000721A6007F12C03DC
:102228001B6893FAA3F207F128031A6007F1280341
:102238001B68B3FA83F3DBB243F02003DBB2DBB2F3
:102248005B09DBB2012B02D1314B1B683DE007F182
:1022580024034FF000721A6007F124031B6893FAF5
:10226800A3F207F120031A6007F120031B68B3FAF1
:1022780083F3DBB243F02003DBB2DBB25B09DBB2F2
:10228800022B02D1224B1B6A1FE007F11C034FF0FF
:1022980000721A6007F11C031B6893FAA3F207F196
:1022A80018031A6007F118031B68B3FA83F3DBB24B
:1022B80043F02003DBB2DBB25B09DBB2042B02D1B3
:1022C800134B5B6801E0124B5B6A07F114024FF095
:1022D8000071116007F11402126892FAA2F107F175
:1022E8001002116007F110021268B2FA82F2D2B23B
:1022F80042F02002D2B2D2B202F01F02D34003F061
:102308000103002B7FF47BAF04E0012303E000BF4F
:10231800001002400023184607F50077BD4680BD2F
:1023280080B59EB000AF7860396000237B67A34B0F
:102338001B6803F007023B689A4210D29F4B9F4AE2
:10234800126822F007013A680A431A609B4B1B681F
:1023580003F007023B689A4201D00123D0E17B6871
:102368001B6803F00203002B08D0954B944A52686F
:1023780022F0F0017A6892680A435A607B681B6809
:1023880003F00103002B00F069817B685B68012B77
:102398005CD14FF400333B673B6F93FAA3F3FB66C2
:1023A800FB6EB3FA83F3DBB243F02003DBB2DBB29C
:1023B8005B09DBB2012B02D1814B1B682DE04FF486
:1023C8000033BB66BB6E93FAA3F37B667B6EB3FAEE
:1023D80083F3DBB243F02003DBB2DBB25B09DBB291
:1023E800022B02D1764B1B6A17E04FF400333B6691
:1023F8003B6E93FAA3F3FB65FB6DB3FA83F3DBB291
:1024080043F02003DBB2DBB25B09DBB2042B02D161
:102418006B4B5B6801E06A4B5B6A4FF40032BA654C
:10242800BA6D92FAA2F27A657A6DB2FA82F2D2B2F3
:1024380042F02002D2B2D2B202F01F02D34003F01F
:102448000103002B40F0BE80012359E17B685B68E3
:10245800022B5BD14FF000733B653B6D93FAA3F3FE
:10246800FB64FB6CB3FA83F3DBB243F02003DBB20B
:10247800DBB25B09DBB2012B02D1514B1B682DE0AB
:102488004FF00073BB64BB6C93FAA3F37B647B6C63
:10249800B3FA83F3DBB243F02003DBB2DBB25B09B0
:1024A800DBB2022B02D1464B1B6A17E04FF00073D8
:1024B8003B643B6C93FAA3F3FB63FB6BB3FA83F3C4
:1024C800DBB243F02003DBB2DBB25B09DBB2042BE7
:1024D80002D13B4B5B6801E0394B5B6A4FF00072FD
:1024E800BA63BA6B92FAA2F27A637A6BB2FA82F2A0
:1024F800D2B242F02002D2B2D2B202F01F02D340CE
:1025080003F00103002B5DD10123F9E002233B63B3
:102518003B6B93FAA3F3FB62FB6AB3FA83F3DBB278
:1025280043F02003DBB2DBB25B09DBB2012B02D143
:10253800234B1B682BE00223BB62BB6A93FAA3F30D
:102548007B627B6AB3FA83F3DBB243F02003DBB22E
:10255800DBB25B09DBB2022B02D1194B1B6A16E016
:1025680002233B623B6A93FAA3F3FB61FB69B3FA6C
:1025780083F3DBB243F02003DBB2DBB25B09DBB2EF
:10258800042B02D10E4B5B6801E00D4B5B6A022203
:10259800BA61BA6992FAA2F27A617A69B2FA82F2F7
:1025A800D2B242F02002D2B2D2B202F01F02D3401D
:1025B80003F00103002B05D10123A1E00020024014
:1025C80000100240504B504A526822F003017A68CA
:1025D80052680A435A60FEF72DFB78677B685B6890
:1025E800012B12D10AE0FEF725FB02467B6FD21AB7
:1025F80041F288339A4201D9032381E0424B5B6858
:1026080003F00C03042BEED128E07B685B68022BF7
:1026180012D10AE0FEF70EFB02467B6FD21A41F296
:1026280088339A4201D903236AE0374B5B6803F089
:102638000C03082BEED111E00AE0FEF7FBFA024684
:102648007B6FD21A41F288339A4201D9032357E0AB
:102658002D4B5B6803F00C03002BEED12B4B1B6852
:1026680003F007023B689A4210D9284B274A1268A0
:1026780022F007013A680A431A60244B1B6803F0EA
:1026880007023B689A4201D0012339E07B681B6846
:1026980003F00403002B08D01B4B1B4A526822F49A
:1026A800E0617A68D2680A435A607B681B6803F065
:1026B8000803002B09D0144B134A526822F46051C6
:1026C8007A681269D2000A435A6000F025F8024677
:1026D8000D4B5B6803F0F001F0233B613B6993FA13
:1026E800A3F3FB60FB68B3FA83F321FA03F3084909
:1026F800CB5CDA40074B1A600020FEF771FA002322
:1027080018467837BD4680BD0010024000200240C0
:10271800EC5B00080000002080B48BB000AF002301
:10272800FB610023BB6100237B6200237B610023E4
:102738003B62294B5B68FB61FB6903F00C03042BCC
:1027480002D0082B03D03CE0244B3B623CE0FB6901
:1027580003F470124FF470133B613B6993FAA3F3CF
:10276800FB60FB68B3FA83F322FA03F31C4AD35CD9
:102778007B61194BDB6A03F00F020F23BB60BB6858
:1027880093FAA3F37B607B68B3FA83F322FA03F32B
:10279800144AD35CBB61FB6903F48033002B08D077
:1027A8000E4ABB69B2FBF3F37A6902FB03F37B625F
:1027B80004E07B690C4A02FB03F37B627B6A3B62A1
:1027C80002E0064B3B6200BF3B6A18462C37BD4609
:1027D8005DF8047B704700BF0010024000127A00C9
:1027E800FC5B00080C5C000800093D0080B400AFE9
:1027F800034B1B681846BD465DF8047B704700BF55
:102808000000002080B592B000AF786000233B64E0
:102818000023FB637B681B6803F48033002B00F004
:10282800F380002387F847305F4BDB6903F0805360
:10283800002B0ED15C4B5C4AD26942F08052DA61BF
:10284800594BDB6903F08053BB60BB68012387F8F1
:102858004730564B1B6803F48073002B18D1534B39
:10286800524A126842F480721A60FEF7E3F938643B
:1028780008E0FEF7DFF902463B6CD31A642B01D956
:10288800032385E1494B1B6803F48073002BF0D0C8
:10289800454B1B6A03F44073FB63FB6B002B00F092
:1028A800A0807B685B6803F44072FB6B9A4200F07F
:1028B80098803D4B1B6A23F44073FB634FF48033CD
:1028C800BB63BB6B93FAA3F37B637B6BB3FA83F3B2
:1028D8009B001A46364B134401221A604FF480338A
:1028E8003B633B6B93FAA3F3FB62FB6AB3FA83F394
:1028F8009B001A462E4B134400221A602A4BFA6B8F
:102908001A62FB6B03F00103002B6AD0FEF792F901
:1029180038640AE0FEF78EF902463B6CD21A41F29F
:1029280088339A4201D9032332E10223BB62BB6A8E
:1029380093FAA3F37B627B6AB3FA83F3DBB243F0C7
:102948004003DBB2DBB25B09DBB2012B02D1164BD1
:102958001B6831E002233B623B6A93FAA3F3FB61F5
:10296800FB69B3FA83F3DBB243F04003DBB2DBB2BB
:102978005B09DBB2022B02D10B4B1B6A1CE0022362
:10298800BB61BB6993FAA3F37B617B69B3FA83F3F9
:10299800DBB243F04003DBB2DBB25B09DBB2042BF2
:1029A80008D1014B5B6807E000100240007000404E
:1029B80000044242784B5B6A02223A613A6992FA11
:1029C800A2F2FA60FA68B2FA82F2D2B242F0400297
:1029D800D2B2D2B202F01F02D34003F00103002B9F
:1029E80098D06D4B6C4A126A22F440717A6852682A
:1029F8000A431A6297F84730012B05D1664B664A9D
:102A0800D26922F08052DA617B681B6803F0010307
:102A1800002B08D0604B604A126B22F003017A68E1
:102A280092680A431A637B681B6803F00203002B51
:102A380008D0594B584A126B22F440317A68D26850
:102A48000A431A637B681B6803F00403002B08D051
:102A5800514B514A126B22F440217A6812690A4399
:102A68001A637B681B6803F02003002B08D04A4BCD
:102A7800494A126B22F010017A68D2690A431A6334
:102A88007B681B6803F40033002B08D0424B424A92
:102A9800526822F480017A68926B0A435A607B6814
:102AA8001B6803F04003002B08D03B4B3A4A126BDB
:102AB80022F020017A68126A0A431A637B681B684D
:102AC80003F00803002B08D0334B334A126B22F46F
:102AD80040117A6852690A431A637B681B6803F0DD
:102AE8001003002B08D02C4B2B4A126B22F4400108
:102AF8007A6892690A431A637B681B6803F4007357
:102B0800002B08D0244B244A526822F400017A682A
:102B1800D26A0A435A607B681B6803F08003002B63
:102B280008D01D4B1C4AD26A22F4F8717A68526A9E
:102B38000A43DA627B681B6803F48073002B08D0B1
:102B4800154B154AD26A22F478517A68926A0A4378
:102B5800DA627B681B6803F48053002B08D00E4BA5
:102B68000D4A126B22F480717A68126B0A431A6359
:102B78007B681B6803F40053002B08D0064B064AF9
:102B8800126B22F400717A68526B0A431A630023AD
:102B980018464837BD4680BD0010024080B586B053
:102BA80000AF7860396000237B6100233B6100231C
:102BB800FB607B68002B01D1012383E07B6893F8DD
:102BC8003930DBB2002B06D17B68002283F838202D
:102BD800786800F0DBFA7B68022283F839207B688A
:102BE8001A687B681B689B6823F4803323F007030B
:102BF80093607B681A687B6804331046194600F0B6
:102C080065F87B681B689B687B617B681B689B69B0
:102C18003B617B681B681B6AFB603B681B687A69C1
:102C280013437B613B6923F4407323F003033B6147
:102C38003B689A683B689B691B0213433A691343D4
:102C48003B613B6923F4406323F00C033B613B6920
:102C580023F4704323F0F0033B613B68DA683B6878
:102C6800DB691B0213433A6913433B613B681B69E9
:102C78001A013B681B6A1B0313433A6913433B6100
:102C8800FB6823F02203FB60FB6823F08803FB60EA
:102C98003B685A683B685B691B011343FA68134336
:102CA800FB607B681B687A699A607B681B683A6975
:102CB8009A617B681B68FA681A627B68012283F84C
:102CC8003920002318461837BD4680BD80B485B02A
:102CD80000AF786039600023FB607B681B68FB608D
:102CE8007A68384B9A420FD07B68B3F1804F0BD08B
:102CF8007A68354B9A4207D07A68344B9A4203D0A7
:102D08007A68334B9A4208D1FB6823F07003FB6062
:102D18003B685B68FA681343FB607A68294B9A4200
:102D28001BD07B68B3F1804F17D07A68264B9A4244
:102D380013D07A68254B9A420FD07A68244B9A426E
:102D48000BD07A68234B9A4207D07A68224B9A4272
:102D580003D07A68214B9A4208D1FB6823F4407368
:102D6800FB603B68DB68FA681343FB607B68FA68C2
:102D78001A603B689A687B68DA623B681A687B6805
:102D88009A627A680F4B9A420FD07A68104B9A422F
:102D98000BD07A680F4B9A4207D07A680E4B9A424A
:102DA80003D07A680D4B9A4203D13B681A697B6855
:102DB8001A637B6801225A611437BD465DF8047BAB
:102DC800704700BF002C014000040040000800408C
:102DD80000340140004001400044014000480140E7
:102DE80080B485B000AF786039607B6893F838307C
:102DF800012B01D102233DE07B68012283F83820B2
:102E08007B681B685B68FB607B681B689B68BB60B2
:102E18007B681A681A4B9A4204D07B681A68194B67
:102E28009A4208D1FB6823F47003FB603B685B6837
:102E3800FA681343FB60FB6823F07003FB603B6890
:102E48001B68FA681343FB60BB6823F08003BB6010
:102E58003B689B68BA681343BB607B681B68FA6869
:102E68005A607B681B68BA689A607B68002283F89E
:102E78003820002318461437BD465DF8047B704798
:102E8800002C01400034014080B500AFFDF792FEF0
:102E980000F01AF800F0B8F800F06CF8074B1B685F
:102EA8005A6A074B1A60064B1B680648194600F019
:102EB80027FEFA20FDF7CAFEF0E700BF70010020E8
:102EC800BC000020E85B000880B59EB000AF02237C
:102ED8003B6501233B6610237B660223FB660023C8
:102EE8003B674FF420137B6707F150031846FEF742
:102EF8005FF90346002B01D000F002F90F23FB63B2
:102F080002233B6400237B644FF48063BB6400238B
:102F1800FB6407F13C0318460121FFF701FA034659
:102F2800002B01D000F0ECF84FF480533B600023F5
:102F38003B633B461846FFF765FC0346002B01D070
:102F480000F0DEF8FFF752FC0246094BA3FB021320
:102F58009B091846FDF764FF0420FDF76DFF4FF04D
:102F6800FF3000210022FDF73FFF7837BD4680BDC6
:102F7800D34D621080B58CB000AF214B214A1A6046
:102F88001F4B00225A601E4B00229A601C4B4FF6C2
:102F9800FF72DA601A4B00221A61194B00225A613B
:102FA8000323FB6000233B6101237B610823BB6192
:102FB8000F23FB6102233B6201237B620823BB6270
:102FC8000F23FB6207F10C030D481946FFF7E6FDD6
:102FD8000346002B01D000F093F800233B60002348
:102FE8007B600023BB603B4605481946FFF7F8FEA7
:102FF8000346002B01D000F083F83037BD4680BD72
:1030080070010020002C014080B58AB000AF3A4B17
:10301800394A526942F400225A61374B5B6903F41A
:1030280000233B613B69344B334A526942F48002C6
:103038005A61314B5B6903F48003FB60FB682E4BDC
:103048002D4A526942F400125A612B4B5B6903F412
:103058000013BB60BB68284B274A526942F4003210
:103068005A61254B5B6903F400337B607B68224B14
:10307800214A526942F480225A611F4B5B6903F46A
:1030880080233B603B681D484FF47F410022FEF7D8
:1030980077F84FF47F437B610123BB610023FB6119
:1030A80000233B6207F1140314481946FDF7ECFEB0
:1030B8004FF480637B610023BB610023FB6107F150
:1030C80014034FF090401946FDF7DEFE4FF4C0534D
:1030D8007B610223BB610023FB6103233B620E2358
:1030E8007B6207F114034FF090401946FDF7CCFEC0
:1030F8002837BD4680BD00BF0010024000100048C0
:1031080080B400AFFEE700BF80B582B000AF1E4BB1
:103118001D4A926942F001029A611B4B9B6903F0B8
:1031280001037B607B680720FDF754FE6FF00B00FE
:1031380000210022FDF758FE6FF00A00002100224E
:10314800FDF752FE6FF0090000210022FDF74CFE4A
:103158006FF0040000210022FDF746FE6FF0030027
:1031680000210022FDF740FE6FF00100002100223F
:10317800FDF73AFE4FF0FF3000210022FDF734FE44
:103188000837BD4680BD00BF0010024080B588B03A
:1031980000AF78607B681A68114B9A421DD1114BB9
:1031A800104A926942F400629A610E4B9B6903F4DB
:1031B8000063BB60BB684FF44073FB6002233B6154
:1031C80000237B610023BB610623FB6107F10C032D
:1031D8004FF090401946FDF757FE2037BD4680BD99
:1031E800002C01400010024080B500AFFDF714FD2F
:1031F800FDF73EFE80BD00BFDFF834D0002103E0BC
:103208000C4B5B58435004310B480C4B42189A4204
:10321800F6D30B4A02E0002342F8043B094B9A42DA
:10322800F9D3FDF77DFC00F011F8FFF72DFEFEE75E
:1032380000A00020E85D000800000020A000002099
:10324800A0000020B0010020FEE7000070B50E4B82
:103258000E4DED1AAD1000241E46AC4204D056F8AF
:10326800242090470134F8E702F0ACFC084D094BE4
:10327800ED1AAD1000241E46AC4204D056F82420A6
:1032880090470134F8E770BDE05D0008E05D000894
:10329800E45D0008E05D000802440346934202D062
:1032A80003F8011BFAE770472DE9F04F55EC104B76
:1032B80085B0002D88469246DDF8389004DA05F18D
:1032C80000473D462D2200E000221A700F9B23F094
:1032D800200BBBF1460F05D0BBF1450F04D108F117
:1032E800010801E0032100E0022102AB009303ABD7
:1032F800019345EC104B42464B4600F0D5FCBBF120
:10330800470F064602D11AF0010F25D0BBF1460F30
:1033180006EB080710D13378302B0AD1204629460E
:1033280000220023FDF7A2FB18B9C8F10103C9F870
:103338000030D9F800301F442046294600220023D7
:10334800FDF794FB00B10397039BBB4204D25A1CC0
:10335800039230221A70F7E7039B9A1B109B3046A2
:103368001A6005B0BDE8F08F034673B5002903F86D
:10337800022B03DA49421A462D2401E01A462B246F
:10338800092944701ADD0DF106040A2691FBF6F5A9
:1033980006FB15113031092D234604F80119294679
:1033A800F3DC05F1300103F8011D0DF107018B4233
:1033B8000AD213F8011B02F8011BF6E730241A465B
:1033C800214402F8024B5970101A02B070BD000077
:1033D8002DE9F04F8BB00C4616461F46DDF850908D
:1033E800054601F0E3FAD0F800A0504600F0C4FB0F
:1033F80000230893D9F8003094F818800590073313
:1034080023F0070393ED000B03F10802C9F800202D
:1034180084ED120B00F08CFB012819D1D4E91201BC
:1034280000220023FDF72CFB10B12D2384F8433034
:10343800914B924AB8F1470F8CBF914699460323A6
:103448002361236823F0040323604FF0000B87E017
:1034580094ED120B00F06CFB226860B9884B894927
:1034680022F00402B8F1470F8CBF8946994603231E
:1034780023612260E9E76368591C28F0200B01D119
:10348800062304E0BBF1470F02D10BB901236360A7
:1034980007AB8DE8080108AB42F480620293002371
:1034A80003936168226094ED120B28460DF11B030B
:1034B800FFF7FAFEBBF1470F8146079909D1C81CEF
:1034C80002DB6368994230DDA8F102085FFA88F8E8
:1034D80002E0B8F1650F12D80139424604F15000F4
:1034E8000791FFF741FF089A8318012A8346236151
:1034F80002DC2268D2072DD5013323612AE0B8F116
:10350800660F14D10029636807DD216113B92268A9
:10351800D0071CD501330B4418E013B92268D20731
:1035280001D5023312E0012310E04FF06708089A32
:10353800914205DB23682161D80708D54B1C05E0BB
:103548000029D4BFC1F10203012313442361A165FB
:103558004FF0000B9DF81B3013B12D2384F8433036
:1035680000972846214609AA334600F041F9013060
:1035780002D14FF0FF3037E123685A0504D42846BA
:1035880031464A46236909E1B8F1650F40F2CC801B
:10359800D4E9120100220023FDF768FA00282AD096
:1035A80028463146384A0123B8470130E1D0089B04
:1035B800079A9A4207DB2368D80704D423689B0735
:1035C80000F1F980FEE0284631465246059BB8478F
:1035D8000130CED04FF00008089B013B9845EDDA4A
:1035E8002846314604F11A020123B8470130C0D0F9
:1035F80008F10108F0E7079B002B28DC2846314634
:10360800214A0123B8470130B3D0079B23B9089B4F
:1036180013B92368D907D1D5284631465246059BA8
:10362800B8470130A5D04FF00008079B5B4298458A
:103638002846314608DA04F11A020123B847013056
:1036480097D008F10108F0E74A46089BA6E0A36D69
:10365800089A9A42B4BF93469B46BBF1000F02DC1E
:103668004FF000081DE0284631464A465B46B847F9
:103678000130F5D17DE700BF245C0008285C000814
:103688002C5C0008305C0008345C00082846314691
:1036980004F11A020123B84701303FF46AAF08F178
:1036A8000108A36D2BEAEB729A1A9045EEDB09EB41
:1036B8000308079A089B9A420FDB2368DA070CD4A1
:1036C800089B079A9944C8EB09099B1A9945A8BF12
:1036D8009946B9F1000F08DC0FE0284631465246FA
:1036E800059BB8470130EBD143E7284631464246AF
:1036F8004B46B84701303FF43CAF4FF000080AE0B2
:103708002846314604F11A020123B84701303FF434
:1037180030AF08F10108079B089A29EAE971D31A22
:103728005B1A9845ECDB49E7089A012A01DCDB07BC
:1037380039D5284631464A460123B84701303FF477
:1037480018AF284631465246059BB84701303FF42A
:1037580010AFD4E9120100220023FDF787F910B158
:103768004FF0000811E0089B2846314609F1010294
:10377800013B1CE02846314604F11A020123B847F0
:1037880001303FF4F6AE08F10108089B013B98456B
:10379800F0DB2846314604F150025B46B847013059
:1037A8007FF40CAFE5E6284631464A460123B84780
:1037B8000130EED1DDE64FF00008E268099BD31A2C
:1037C800984505DBE068099B9842B8BF18460BE0AE
:1037D8002846314604F119020123B84701303FF465
:1037E800C8AE08F10108E8E70BB0BDE8F08F00BFEC
:1037F8002DE9F84315461F468A680B69DDF82080D5
:103808009A42A8BF13462B6091F8432006460C46FF
:103818000AB101332B602368990602D52B6802335D
:103828002B60236813F006091DD094F843302268F2
:10383800003318BF012392061FD5E1185A1C302007
:1038480081F84300224494F8451082F8431002336B
:1038580013E03046394604F119020123C04701300C
:1038680007D009F10109E2682B68D31A9945F0DB02
:10387800DBE74FF0FF30BDE8F8833046394604F106
:103888004302C0470130F4D023682A68E16803F096
:103898000603042B08BFC2EB01052369A2680CBF0D
:1038A80025EAE57500259A42C4BFC3EB0203ED186B
:1038B8004FF00009A9450ADA3046394604F11A02E0
:1038C8000123C0470130D4D009F10109F2E70020F3
:1038D800BDE8F8832DE9FF470E7E0C9D6E2E8046CD
:1038E8000C4691469A4601F1430000F0A58011D894
:1038F800632E22D009D8002E00F0B280582E40F056
:10390800C28081F845607C4A4FE0642E1ED0692E43
:103918001CD0B8E0732E00F0A78009D86F2E2BD0EA
:10392800702E40F0B0800B6843F020030B6038E045
:10393800752E21D0782E34D0A5E02B681A1D1B686F
:103948002A6001F1420781F84230A0E022682B6822
:1039580012F0800F03D01A1D2A601D6805E0570673
:10396800F9D51A1D2A60B3F90050002D39DA2D2334
:103978006D4284F8433034E022682B6812F0800FDF
:1039880003D01A1D2A601D6804E05606F9D51A1DD1
:103998002A601D88237E584A6F2B14BF0A230823E8
:1039A8001BE07823554A84F845302368296813F0CA
:1039B800800F01F104062E6001D00D6802E05D065B
:1039C800FBD50D88D90744BF43F0200323601DB9F8
:1039D800236823F0200323601023002184F8431078
:1039E80001E0454A0A236668A660002E03DB2168C9
:1039F80021F00401216005B96EB104F14201B5FB63
:103A0800F3F603FB16550F46555D01F80159354687
:103A1800002EF4D100E00746082B0AD12368DA0704
:103A280007D5626823699A4203DC302307F8013C12
:103A3800013FC01B20612FE009682B68626911F003
:103A4800800F03D0191D29601B6808E011F0400F92
:103A580003F1040129601B6801D01A8000E01A6094
:103A680000232361074617E02B681A1D2A601F6888
:103A7800384600F081F863682061984288BF236166
:103A88002369636005E004F1420784F8426001237A
:103A98002361002384F84330CDF800A04046214636
:103AA80003AA4B46FFF7A4FE013002D14FF0FF30C6
:103AB8001FE0404649463A462369D0470130F5D0D1
:103AC80023689B0705D4E068039B9842B8BF184653
:103AD8000FE00025E268039BD31A9D42F3DA4046C3
:103AE800494604F119020123D0470130DED00135DF
:103AF800F0E704B0BDE8F087365C0008475C0008D2
:103B08000FB40A4B13B51C6824B1A36913B9204636
:103B180000F0C2FE05AB2046A168049A019301F0AB
:103B28000BFB02B0BDE8104004B0704764000020F1
:103B380051EC100B31F0004310B500D178B10C4AAC
:103B4800A3F5801494420CD9B3F5801F0BD3094A0E
:103B580093420AD1D0F1010038BF002010BD0220E5
:103B680010BD042010BD032010BD002010BD00BFF3
:103B7800FFFFDF7F0000F07F034613F8012B002AC8
:103B8800FBD1181A013870472DE9F74F03690C6902
:103B9800A3428046C0F28180013C01F11407A200D3
:103BA80000F114059146009257F824602A440192C6
:103BB80055F824200136B2FBF6F6B944002E3AD067
:103BC8004FF0000E3A462846F34652F804CB0368F5
:103BD8001FFA8CFA4FEA1C4C0AFB06EA0CFB06FC9F
:103BE8000CEB1A4C1FFA8AFACAEB0B0A4FEA1C4E66
:103BF8001FFA8CFC1AFA83FACCEB134C0CEB2A4C08
:103C08001FFA8AFA4AEA0C4A4A454FEA2C4B40F80E
:103C180004ABDAD9009AAB586BB9019A131FAB42BF
:103C28001A4602D8C8F8104005E01268043B002A7A
:103C3800F8D1013CF3E7404601F0E3F800282ADB1D
:103C480001362B46002057F804CB1A681FFA8CF16E
:103C5800411A4FEA1C4C11FA82F1CCEB124202EBEA
:103C6800214289B210144F4541EA024243F8042B1D
:103C7800E9D955F8242005EB840362B9043BAB422B
:103C88001A4602D8C8F8104005E01268043B002A1A
:103C9800F8D1013CF3E7304600E0002003B0BDE86E
:103CA800F08F0000000000002DE9F04F456A9BB03E
:103CB80082460D910E921493249C8DED020B45B90A
:103CC800102000F077FECAF8240045608560056082
:103CD800C560DAF82430196861B15B684B6001226D
:103CE80002FA03F38B60504600F0AAFEDAF824309B
:103CF80000221A600399002905DA012321F0004205
:103D08002360039201E000232360039C9A4A24F075
:103D180000431B0D1B0593421DD1149F029942F2CB
:103D28000F733B6041B9954B954AC4F313000028C3
:103D38000CBF1046184600E09048259F002F00F061
:103D48006585C37813B100F1080300E0C31C259F03
:103D58003B6000F05BBDDDE9028900224046494630
:103D68000023FCF783FE054658B1149F01233B60EE
:103D7800259F002F00F0478582483860013800F001
:103D880045BD504649EC108B19A918AA01F0B4F8A2
:103D9800C4F30A56834656B1C9F3130343F07F515F
:103DA800404641F44011A6F2FF3615951CE0199BD8
:103DB800189E1E446FF482639E4209DB02991F33EA
:103DC80006F212409B1B21FA00F09C40204304E0BD
:103DD8006D48029A801B02FA00F0FCF769FB012784
:103DE800A1F1F871013E15970022684BFCF722FA01
:103DF8005BA3D3E90023FCF7D1FB5BA3D3E9002342
:103E0800FCF71AFA044630460D46FCF761FB58A346
:103E1800D3E90023FCF7C2FB02460B46204629469D
:103E2800FCF70AFA04460D46FCF752FE294681467D
:103E3800002220460023FCF723FE58B14846FCF731
:103E480047FB02460B4620462946FCF70FFE08B9F9
:103E580009F1FF39B9F1160F0DD84D4B03EBC90322
:103E6800D3E90001DDE90223FCF728FE30B109F1AE
:103E7800FF39002700E00127119700E01190189BF7
:103E88009E1B013E069604D57742059700270697A4
:103E980001E000270597B9F1000F07DB069FCDF871
:103EA80040904F44069700270B9708E0059FC9EB01
:103EB80007070597C9F100070B97002710970D9F73
:103EC800092F28D8052FC4BF043F0D970D9FA7F1D0
:103ED8000203CCBF00250125032B21D8DFE803F01E
:103EE800060F0204012702E0012709E000270C97CA
:103EF8000E9F002F1EDD0A9704973B461FE0002700
:103F08000C970E9F4F440A9701373B460497012BA5
:103F1800B8BF012313E0012500270D970C9501E098
:103F280001270C974FF0FF370A97049700271223B1
:103F38000E9704E001270A9704973B460E97DAF894
:103F4800244000226260042101F114029A4221D81F
:103F58006268013262604900F6E700BFAFF3008093
:103F680061436F63A787D23FB3C8608B288AC63F77
:103F7800FB799F501344D33F0000F07F615C000839
:103F8800585C0008355C0008EEFBFFFF0000F83FB6
:103F9800D05C00085046616800F01DFDDAF8243056
:103FA800049F20601B6807930E2F00F26981002D83
:103FB80000F066819DED027BB9F1000F8DED127B5B
:103FC80031DD804A09F00F0302EBC30393ED007B58
:103FD8004FEA2914E0068DED087B0CD57A4BDDE914
:103FE8001201D3E90823FCF703FC04F00F04CDE920
:103FF8000201032700E00227734D6CB1E10708D5E1
:10400800DDE90801D5E90023FCF7C8FACDE9080184
:10401800013764100835F0E7DDE90201DDE908231E
:10402800FCF7E6FB1BE0C9F10004DCB1654B664D0B
:1040380004F00F0203EBC203DDE91201D3E9002308
:10404800FCF7ACFA241102274CB1E20704D5D5E9F4
:1040580000230137FCF7A2FA64100835F4E7CDE92C
:10406800020100E002271199E1B1DDE902450022D1
:1040780020462946554BFCF703FDC0B1049ADAB136
:104088000A9B002B40F3F88009F1FF310F910022C1
:10409800204629464E4BFCF781FA0137CDE902014B
:1040A8000A9A0CE0049BCDF83C90089308E0049928
:1040B800CDF83C90089103E0049ACDF83C90089222
:1040C8003846FCF705FADDE90223FCF767FA002217
:1040D800404BFCF7B1F8089F0446A1F15075CFB9E1
:1040E80000223D4BDDE90201FCF7A4F822462B46ED
:1040F80006460F46FCF7E2FC002840F04B822246B9
:1041080005F1004330463946FCF7BAFC002840F078
:104118003782B1E0089F2B4B7A1E0C9F03EBC2033A
:10412800002F5DD0D3E9002300202C49FCF760FB69
:1041380022462B46FCF77EF8DDE90267DDF81C8095
:1041480004460D4639463046FCF7C2FC0090FCF7A1
:10415800BFF902460B4630463946FCF76BF8DDF8E6
:1041680000C00CF1300308F8013B22462B460646F6
:104178000F46FCF785FC002840F0338332463B4667
:1041880000201249FCF756F822462B46FCF778FC2B
:10419800002840F0D4800799089AC1EB080393429D
:1041A8006ADA204629460022094BFCF7F7F9002273
:1041B80004460D4630463946054BFCF7EFF90646EE
:1041C8000F46BFE7D05C0008985D00080000F03F8C
:1041D8000000244000001C40000014400000E03FA4
:1041E800D3E9000122462B46FCF7D8F9DDF81C80FC
:1041F800089B079CCDE91601DDE90267984439461A
:104208003046FCF765FC0546FCF762F93035024696
:104218000B4630463946FCF70DF804F8015B444577
:1042280006460F4621D10022874BDDE91601FCF72F
:1042380003F802460B4630463946FCF73FFC002897
:104248007DD1DDE9162300207F49FBF7F3FF024605
:104258000B4630463946FCF713FC68B1A046013CD2
:1042680018F8013C302BF9D0BBE20022774BFCF761
:1042780095F906460F46C2E79DED127B8DED027B50
:10428800199B002B7CDBB9F10E0F79DC704B0E9F6C
:1042980003EBC903002FD3E9004514DA049F002F6C
:1042A80011DC40F06F81204629460022694BFCF75B
:1042B80075F9DDE90223FCF7F7FB049D2C4600287D
:1042C80040F062816AE1DDE90267DDF81C80224680
:1042D8002B4630463946FCF78BFAFCF7F9FB02907F
:1042E800FCF7F6F822462B46FCF758F902460B462F
:1042F80030463946FBF79EFF029F07F1300608F863
:10430800016B079FC7EB0806049FBE4202460B4697
:1043180029D1FBF791FF22462B4606460F46FCF7AC
:10432800CDFB70B93046394622462B46FCF79EFB3A
:10433800002800F05882029FFB0702D453E2DDF800
:104348003C9043469846013B18F8012C392A06D17F
:10435800079F9F42F6D1302209F101093A701A7875
:1043680001321A703FE20022384BFCF717F900229D
:10437800002306460F46FCF779FB0028A7D032E257
:104388000C9F002F30D00D9F012F0ADC159F17B10D
:1043980003F2334302E0189BC3F136030B9D059EDD
:1043A80016E0049F7D1E0B9FAF4201DB7D1B06E0DC
:1043B8000B9F0B95EB1B109F1F4410970025049F24
:1043C800002F03DA05990023CE1B01E0059E049B0C
:1043D800059F1F440597069F50461F4401210697D5
:1043E80000F0CCFB044602E00B9D059E0C9C6EB1D0
:1043F800069F002F0ADD3B46059FB342A8BF334600
:10440800FF1A0597069FFF1AF61A06970B9F002FAB
:1044180028DD0C9F07B3002D10DD21462A465046A3
:1044280000F04EFC04465A462146504600F0AFFBC9
:1044380059460746504600F003FBBB460B9F7A1BC4
:1044480010D0504659460AE00000E03F00002440E2
:10445800D05C0008000014400B9A5046594600F002
:104468002FFC83465046012100F088FB109F002F47
:10447800054605DD294650463A4600F021FC05462A
:104488000D9F012F12DC029981B9039AC2F313031D
:1044980073B922F000473F0D3F0557B1059F01371B
:1044A8000597069F01370697012702E0002700E0DD
:1044B800029F109941B12B6905EB8303186900F03D
:1044C80010FBC0F1200000E00120069B034413F01C
:1044D8001F0308D0C3F12002042A02DDC3F11C0324
:1044E80002E008D013461C33059A06991A44194469
:1044F80005921E440691059A002A04DD5946504645
:1045080000F02CFC8346069B002B05DD294650460F
:104518001A4600F023FC05461199E1B15846294690
:1045280000F06FFC002816DA59460A22504600238C
:1045380000F09DFA0C9A09F1FF3983464AB12146E9
:10454800002350460A2200F092FA0A9B049304467C
:1045580001E00A990491049A002A29DC0D9B022B98
:1045680026DD8AB929460522049B504600F07FFAC9
:1045780005462946584600F044FC00280EDC03E0B6
:10458800089D00E000252C460E9FDDF81C806FEA90
:1045980007090AE0089DDDF83C902C46079F312367
:1045A80007F101083B7009F101092746002407E1DA
:1045B8000C99002900F0BB80002E05DD21465046ED
:1045C800324600F0CBFB04469FB16168504600F0CC
:1045D80002FA22690232064604F10C0192000C30FC
:1045E80000F0F0F950463146012200F0B7FB0746CB
:1045F80000E02746079E29465846FFF7C5FA214698
:1046080000F1300C80465846CDF800C000F0F9FBA8
:104618003A4605902946504600F010FCC368DDF87C
:1046280000C002464BB911465846019200F0E9FB1A
:10463800019ADDF800C0034600E001235046114608
:104648000193CDF800C000F0FBF9019BDDF800C034
:1046580063B90D9A52B9029901F0010232B9BCF15D
:10466800390F35D0059B002B24DC25E0059900295E
:1046780002DA002B08DC1FE023D10D9A0ABB02994D
:1046880001F00102EAB9F4E7594601225046CDF893
:1046980000C000F063FB2946834600F0B2FB002807
:1046A800DDF800C003DC07D11CF0010F04D0BCF119
:1046B800390F0DD008F1310C06F1010886F800C059
:1046C8007EE0002B06F1010809DDBCF1390F03D1AA
:1046D8003923337001365BE00CF1010368E0079A77
:1046E80004994646C2EB08038B4206F801CC3CD03D
:1046F80059460A220023504600F0B9F9BC428346C5
:10470800214650464FF00A024FF0000304D100F052
:10471800AEF9044607466EE700F0A9F939460446A3
:104728000A225046002300F0A2F9074663E70C9ED0
:1047380058462946FFF728FA079F00F1300C07F87A
:1047480006C0049F0136BE4207DB079E012FACBF9F
:10475800F61901362746002407E0594650460A2232
:10476800002300F084F98346E2E7594601225046C7
:10477800CDF800C000F0F2FA2946834600F041FB6C
:104788000028DDF800C003DC14D11CF0010F11D0A3
:1047980016F8013C392BB04606F1FF3607D10799C8
:1047A800B142F5D1312309F101090B7008E0013359
:1047B800337005E0B046013E18F8013C302BF9D0C3
:1047C8005046294600F03CF96FB12CB1BC4203D0E9
:1047D8005046214600F034F95046394600F030F989
:1047E80001E0DDF83C905046594600F029F90023D5
:1047F800149F88F8003009F101033B60259F27B119
:10480800C7F8008001E0034800E007981BB0BDE846
:10481800F08F00BF345C0008014900F0A9B800BF60
:10482800B9550008002310B504460360436083604F
:1048380081814366C28103614361836119465C30AB
:104848000822FEF729FD054B6362054BA362054B61
:10485800E362054B2462236310BD00BF695300085F
:104868008B530008C3530008E753000870B54B1E6C
:1048780068255D430E4605F1740100F0DFFB044630
:1048880040B1002180E842000C30A06005F16802C8
:10489800FEF702FD204670BD836910B5044633BBA0
:1048A8008364C3640365124B124A1B688262984290
:1048B80004BF0123836100F01FF86060204600F008
:1048C8001BF8A060204600F017F80421E0600022E1
:1048D8006068FFF7A7FFA06809210122FFF7A2FF80
:1048E800E06812210222FFF79DFF0123A36110BD9A
:1048F800205C000821480008F8B51B4B1E68B36906
:10490800074613B93046FFF7C7FF4836B4687368DF
:10491800013B04D4B4F90C5075B16834F8E7336836
:104928002BB938460421FFF7A1FF306008B136687B
:10493800ECE70C233B60F8BD4FF6FF73E3810123DE
:10494800A38165662560A560656025616561A561CF
:1049580004F15C0029460822FEF79EFC6563A56306
:10496800A564E5642046F8BD205C000870477047E0
:104978002DE9F8438046894600F14804002694B1A1
:10498800A5686768013F0CD4AB89012B07D9B5F935
:104998000E30013303D040462946C84706436835E0
:1049A800F0E72468EBE73046BDE8F8830048704735
:1049B80068000020024B0146186800F03FBB00BFAA
:1049C8006400002010B50023934203D0CC5CC4548B
:1049D8000133F9E710BD70B5456A04460E463DB986
:1049E8001020FFF7E7FF6062456085600560C560DD
:1049F800656AEB6843B1636ADA6852F8260078B1F1
:104A0800016842F8261017E020460421212200F010
:104A1800C3FA636AE860DB68002BECD1002070BD44
:104A2800012101FA06F56A1D2046920000F0B4FA49
:104A38000028F3D04660856000220261C26070BD24
:104A480070B5446A06460D463CB91020FFF7B2FF20
:104A58007062446084600460C4603DB1736A6A68CF
:104A6800DB6853F82210296043F8225070BD2DE905
:104A7800F0410C461E460D690746143100230868AC
:104A88001FFA80FC000C02FB0C6C504300EB1C402E
:104A980001331FFA8CFC060CAB420CEB004041F8CA
:104AA800040BECDBD6B1A3689D4212DB6168384683
:104AB8000131FFF790FF2269023204F10C018046B0
:104AC80092000C30FFF77EFF21463846FFF7B8FF0B
:104AD800444604EB850301355E6125612046BDE847
:104AE800F081030C1B0413B90004102300E0002319
:104AF80010F07F4F04BF0002083310F0704F04BF5E
:104B08000001043310F0404F04BF80000233002836
:104B180003DB420003D5581C704718467047202015
:104B28007047036813F007020BD0D90722D49A07FD
:104B380003D55B080360012070479B0803600220CF
:104B4800704799B209B91B0C102213F0FF0F04BF6C
:104B58001B0A0832190704BF1B090432990704BF4E
:104B68009B080232D90702D45B0805D001320360E2
:104B780010467047002070472020704710B50C463B
:104B88000121FFF728FF01224461026110BD2DE9D0
:104B9800F04F16460A6933699A4285B00D4601DA24
:104BA80035460E46D5F810803769AB68696808EB5A
:104BB80007049C42C8BF0131FFF70DFF00F1140341
:104BC80003EB840101911A46DDF804A0524503D293
:104BD800002142F8041BF7E705F1140106F114025D
:104BE80001EB880802EB8707CDF808800397039E3E
:104BF800B242154656D2B5F800C00432BCF1000FD7
:104C080025D00F461D46002657F8049BD5F800808E
:104C18001FFA89FB1FFA88FA0CFB0BAA4FEA1949FD
:104C28004FEA1848B2440CFB098808EB1A481FFAE7
:104C38008AFA4AEA084A4FEA1846DDF80880AB467D
:104C4800B8454BF804AB01D95D46DDE76E6032F834
:104C5800028CB8F1000F23D01E680F461D464FF096
:104C68000009B7F800A0B5F802C008FB0ACCE14477
:104C7800B6B2AC4646EA09464CF8046B57F8046BE2
:104C8800B5F804A0360C08FB06A6DDF808A006EB6C
:104C9800194657454FEA164901D26546E1E76E6065
:104CA8000433A4E7019B002C03DC046105B0BDE8D4
:104CB800F08F53F8042D002AF7D1013CF3E70000E8
:104CC80012F003032DE9F04105460E46174607D0BA
:104CD800013B214A52F823200023FFF7C8FE06466D
:104CE800BF1035D06C6A3CB91020FFF763FE6862CC
:104CF800446084600460C460D5F82480D8F8084013
:104D08007CB9284640F27121FFF738FF0023C8F824
:104D180008000446036004E07F1019D0206870B1D1
:104D28000446FB07F8D5314622462846FFF72FFFF1
:104D3800314680462846FFF783FE4646ECE728467C
:104D480021462246FFF723FF002320600360E7E7A0
:104D58003046BDE8F08100BFC05D00082DE9F0478E
:104D68000C464FEA621A236949680AEB0309A368EB
:104D78008046154609F101079F4202DD01315B00BB
:104D8800FAE74046FFF727FE0023064600F1140223
:104D9800534504DA002142F823100133F8E720696B
:104DA8002AEAEA7104F1140315F01F0C02EB8101E1
:104DB80003EB800E16D0CCF1200A002518680A46AD
:104DC80000FA0CF0054342F8045B53F8045B7345A2
:104DD80025FA0AF501D21146F0E74D6045B109F10F
:104DE800020705E053F8042B41F8042B7345F9D367
:104DF800013F404637612146FFF722FE3046BDE8B5
:104E0800F08702690B69D21A10B513D19C001430CF
:104E180001F114020319224453F8044D52F8041DF9
:104E28008C4203D008D24FF0FF3010BD9842F3D324
:104E3800002010BD104610BD012010BD2DE9F0471F
:104E480006460C46084611461546FFF7DAFF071EC8
:104E580008D130463946FFF7BEFD0123036147619B
:104E6800BDE8F08701DB002703E0234601272C4635
:104E78001D4661683046FFF7AEFD22692B69C760A1
:104E8800143405F1140606EB830A04EB820C00F1D6
:104E98001403002154F8047B56F8049B11FA87F197
:104EA8001FFA89F54FEA1949C5EB0108C9EB1747FD
:104EB80007EB28471FFA88F83914B24548EA07472C
:104EC800254643F8047BE5D865450DD255F8044BD3
:104ED80011FA84F6240C04EB2644B6B2211446EAEF
:104EE800044443F8044BEFE753F8041D09B9013AA9
:104EF800FAE70261BDE8F0872DE9F7438946012109
:104F080055EC104B9046FFF766FDC5F30A57064669
:104F1800C5F313030FB143F480130193D4B102A86E
:104F280040F8084D6846FFF7FCFD009B48B1019A20
:104F3800C0F1200102FA01F10B43C24073610192F2
:104F480000E07361019BB361002B0CBF01240224B4
:104F5800346107E001A8FFF7E4FD0124019B7361B8
:104F6800346120303FB1A7F233470744C9F80070D5
:104F7800C0F135000AE006EB8403A0F23240C9F81C
:104F880000001869FFF7ADFDC0EB4410C8F8000039
:104F9800304603B0BDE8F08338B502FB01F4214682
:104FA80000F04CF8054618B100212246FEF774F9C6
:104FB800284638BD30B500293CD051F8042C0B1FC9
:104FC8001D49002AB8BF9B180A680C4612B95A60D6
:104FD8000B6030BD93420DD219685818904203D126
:104FE8005A581144426819605A60236030BD99428A
:104FF80003D80A4651680029F9D1146815199D4249
:105008000AD11B682344D0188842136012D108685B
:10501800034413604B680CE002D90C23036030BDD5
:1050280018681C188C4203D10C6849682044186021
:105038005960536030BD00BFC400002070B5CD1C5E
:1050480025F0030508350C2D38BF0C25002D064624
:1050580003DA0C233360002070BD8D42F9D3204B56
:105068001C6818462146A1B10B685B1B0ED40B2B9C
:1050780003D90B60CC18CD501FE08C4202D1626876
:1050880002601AE04B6863600C4616E00C464968FB
:10509800E9E7144C23681BB9304600F051F9206049
:1050A8002946304600F04CF9431C0146D1D0C41CB7
:1050B80024F0030484420AD1256004F10B00231D67
:1050C80020F00700C31A09D05A42E25070BD30469A
:1050D800611A00F035F90130EED1BAE770BD00BFB2
:1050E800C4000020C00000209368013B002B10B5CD
:1050F800936005DA9469A34208DBCBB20A2B05D08A
:105108001368581C10601970C8B210BDBDE8104073
:1051180000F06AB9F8B505460E461446D718BC42E1
:1051280008D0284614F8011B3246FFF7DDFF431C60
:10513800F5D100E00020F8BD2DE9F0439DB00D4603
:1051480017460393064618B183690BB9FFF7A4FB0A
:10515800734B9D4201D1756808E0724B9D4201D1A5
:10516800B56803E0704B9D4208BFF568AB89180726
:105178000AD52B6943B10023099320238DF82930E0
:1051880030238DF82A3038E03046294600F092F96D
:105198000028F0D04FF0FF30BFE0039A111D1268CD
:1051A8000391002A70DB0792013423782E2B7DD0DF
:1051B8005E4F21783846032200F05AFB30B1C71BF6
:1051C800049B4020B8400343049301342178584895
:1051D8008DF828100622671C00F04AFB002800F012
:1051E8008A80544B002B7DD1039B073323F00703A0
:1051F80008330393099B434409933B461C4613F821
:10520800012B1AB9B4EB07090ED002E0252AF5D113
:10521800F8E7304629463A464B46FFF77BFF013010
:1052280076D0099B4B4409932378002B70D0002338
:105238004FF0FF3204930793059206938DF853308D
:105248001A9304F101094C463B4F21783846052250
:1052580000F00EFB09F10109049B28B1C71B0120CE
:10526800B84003430493EEE7D90644BF20228DF8E3
:1052780053201A0744BF2B228DF8532022782A2A5C
:105288008BD0079B214605E0524243F00203079268
:10529800049389E70C4601312278303A092A03D869
:1052A8000A2000FB0323F5E707937EE763782A2BA0
:1052B8000AD1039B1A1D1B680392002B04F10204F8
:1052C800B8BF4FF0FF330BE0611C00230C460131DF
:1052D8002278303A092A03D80A2000FB0323F5E78D
:1052E800059365E703AB0093304604A92A46134BA0
:1052F800FEF76EF807E003AB0093304604A92A4690
:105308000E4BFEF7E7FAB0F1FF3F80467FF472AF2D
:10531800AB895B063FF53EAF09981DB0BDE8F08349
:10532800685C0008885C0008A85C0008D25D00087A
:10533800D65D0008D9330008CC5D00081D5100086F
:1053480038B5064C002305460846236000F0CEFB1E
:10535800431C02D1236803B12B6038BDAC01002087
:1053680010B50C46B1F90E1000F092FA002803DBD4
:10537800636D0344636510BDA38923F48053A3813F
:1053880010BD2DE9F0411D468B89DB0507460C460B
:10539800164605D5B1F90E100022022300F008FACE
:1053A800A389B4F90E1023F48053A38138463246FA
:1053B8002B46BDE8F04100F06BB810B50C46B1F9CA
:1053C8000E1000F0F5F9431CA38903D123F4805390
:1053D800A38110BD43F48053A381606510BDB1F96A
:1053E8000E1000F0D5B8000070B50E4614460546FC
:1053F80018B183690BB9FFF74FFA224B9C4201D1D0
:105408006C6808E0204B9C4201D1AC6803E01F4B5C
:105418009C4208BFEC68A369A360A3891A0709D551
:1054280023693BB123692068C01A63699842F6B2C0
:105438000FDB08E02846214600F03CF80028F1D0B0
:105448004FF0FF3070BD2846214600F087F900284C
:10545800F6D1A368013BA36023685A1C22601E7022
:1054680063690130984204D0A389DB0707D50A2E67
:1054780005D12846214600F071F90028E0D13046D0
:1054880070BD00BF685C0008885C0008A85C000864
:1054980038B5074C054600202060084611461A46D4
:1054A80000F0D1FA431C02D1236803B12B6038BD48
:1054B800AC010020324B70B51D6806460C4625B17C
:1054C800AB6913B92846FFF7E7F92E4B9C4201D187
:1054D8006C6808E02C4B9C4201D1AC6803E02B4B74
:1054E8009C4208BFEC68A28993B2190720D4DD0654
:1054F80005D4092342F040023360A2813BE05807FB
:1055080012D5616B41B104F14403994202D030468F
:10551800FFF750FD00236363A38923F02403A381CD
:105528000023636023692360A38943F00803A381F0
:1055380023694BB9A38903F42073B3F5007F03D023
:105548003046214600F046F9A38913F0010205D040
:105558000022A26062695242A26103E0990758BF23
:105568006269A26022694AB903F0800080B230B152
:1055780043F04003A3814FF0FF3070BD002070BDA1
:1055880064000020685C0008885C0008A85C0008CB
:1055980038B5064C002305460846236000F082FA19
:1055A800431C02D1236803B12B6038BDAC01002035
:1055B80070B505460C4609B9002070BD18B183695D
:1055C8000BB9FFF769F9204B9C4201D16C6808E0E0
:1055D8001E4B9C4201D1AC6803E01D4B9C4208BFA6
:1055E800EC68B4F90C30002BE6D02846214600F0D0
:1055F80031F8236B064633B12846216A98470028BC
:10560800B8BF4FF0FF36A3891B0603D5284621698A
:10561800FFF7D0FC616B41B104F14403994202D019
:105628002846FFF7C7FC00236363A16C21B1284615
:10563800FFF7C0FC0023A364FFF798F90023A381B8
:10564800FFF795F9304670BD685C0008885C000873
:10565800A85C00088A892DE9F041054610070C4628
:1056680057D44B68002B02DC0B6C002B18DDE66A64
:10567800B6B102F48052002392B22F682B600AB1AF
:10568800626D10E0216A28460123B047411C02469A
:1056980009D12B683BB11D2B01D0162B46D12F60A9
:1056A8000020BDE8F081A3895B0705D56368D21A9D
:1056B800636B0BB1236CD21AE66A216A2846002371
:1056C800B047461CA28905D12B681BB11D2B01D000
:1056D800162B19D100236360D1042369236004D5F4
:1056E800421C01D12B6803B96065616B2F600029EA
:1056F800D6D004F14403994202D02846FFF75AFC59
:1057080000206063BDE8F08142F04002A281BDE85C
:10571800F0810E69002EC3D00B680E60C6EB03083B
:1057280093070CBF4B6900238B6012E0A38943F0F9
:105738004003A3814FF0FF30BDE8F081A76A216ADA
:10574800284632464346B8470028EFDD0644C0EBFA
:105758000808B8F1000FF1DCA2E7000038B50B69C2
:1057680005460C46DBB118B183690BB9FFF794F80D
:105778000C4B9C4201D16C6808E00B4B9C4201D158
:10578800AC6803E0094B9C4208BFEC68B4F90C30E4
:105798002BB128462146BDE83840FFF75BBF002003
:1057A80038BD00BF685C0008885C0008A85C000879
:1057B80038B5074C054600202060084611461A46B1
:1057C80000F02FF9431C02D1236803B12B6038BDC8
:1057D800AC010020F0B58B899E0791B005460C46B8
:1057E80026D4B1F90E10002909DAA38913F0800F25
:1057F8004FF0000714BF40264FF480660DE001AA61
:1058080000F058F80028F0DB029F07F47047B7F55E
:1058180000514F424F414FF4806628463146FFF70A
:105828000DFC60B9A3899A051DD443F00203A38136
:1058380004F14703236023610123636113E00B4BE9
:10584800AB62A389206043F08003A3812061666175
:105858004FB12846B4F90E1000F03EF818B1A389EC
:1058680043F00103A38111B0F0BD00BF2148000837
:1058780010B5C9B202449042034606D01C788C4247
:1058880000F10100F7D1184610BD002010BD00003E
:1058980038B5074C054600202060084611461A46D0
:1058A80000F067F8431C02D1236803B12B6038BDB0
:1058B800AC01002038B5074C0023054608461146C0
:1058C800236000F04EF9431C02D1236803B12B601A
:1058D80038BD00BFAC01002038B5064C0023054692
:1058E8000846236000F04BF9431C02D1236803B13A
:1058F8002B6038BDAC0100200A4B10B5044618686F
:1059080018B183690BB9FEF7C7FF132C07D80648EF
:1059180050F83430013302D000EBC40010BD002031
:1059280010BD00BF64000020CC000020F8B504467C
:1059380000F042F900270546132630463946ABBE2B
:1059480006462E602046F8BD431C01D1FFF7EEBF86
:10595800704730B585B001AD0190029103920624DD
:1059680020462946ABBE04462046FFF7EDFF05B0AA
:1059780030BD70B50E461546FFF7BEFF044630B978
:1059880000F01AF9092303604FF0FF3070BD00687A
:1059980031462A46FFF7DDFF431C03D06368281A07
:1059A8000344636070BDF7B50C461646FFF7A4FFC5
:1059B800054618B900F000F9092304E0022E06D9BB
:1059C80000F0FAF8162303604FF0FF3027E0012EAD
:1059D80003D14368E41812D5F2E7022E0FD102AEC4
:1059E800036846F8083D0C2738463146ABBE0646E4
:1059F8003046FFF7A9FF431C18BF2418E4D02B68D2
:105A08006F468DE818000A2630463946ABBE064672
:105A18003046FFF799FF0028D6DB6C60204603B0BC
:105A2800F0BDFFF7C0BF30B585B001AD0190029160
:105A38000392052420462946ABBE04462046FFF7BC
:105A480083FF05B030BD70B50E461546FFF754FF0D
:105A5800044620B900F0B0F80923036011E000689B
:105A680031462A46FFF7DFFF031E0ADB6268E81AA1
:105A780002449D42626006D10020BDE87040FFF7F5
:105A880055BF4FF0FF3070BD37B502AC022544F862
:105A9800040D28462146ABBE04462046FFF754FFB6
:105AA80003B030BD38B50546FFF726FF044630B9C8
:105AB80000F082F8092303604FF0FF3038BD013D44
:105AC800012D09D8084B9A681B699A4204D14FF0F6
